:100000000C945D000C9485000C9485000C94850084
:100010000C9485000C9485000C9485000C9485004C
:100020000C9485000C9485000C9485000C9485003C
:100030000C9485000C9485000C9485000C9485002C
:100040000C9435020C9485000C9485000C9485006A
:100050000C9485000C9485000C9485000C9485000C
:100060000C9485000C94850000000008000201003B
:100070000003040700000000000000000000000072
:10008000250028002B0000000000240027002A0083
:10009000040404040404040402020202020203032E
:1000A0000303030301020408102040800102040836
:1000B0001020010204081020050311241FBECFEFF9
:1000C000D8E0DEBFCDBF11E0A0E0B1E0EAECF7E0A0
:1000D00002C005900D92A234B107D9F721E0A2E445
:1000E000B1E001C01D92A336B207E1F710E0CDE503
:1000F000D0E004C02197FE010E94D803CC35D1077F
:10010000C9F70E947F020C94E3030C94000090E076
:10011000FC01EC55FF4F2491FC01E057FF4F849107
:10012000882399F090E0880F991FFC01EA57FF4F50
:10013000A591B491FC01E458FF4F859194918FB73C
:10014000F894EC91E22BEC938FBF0895CF92DF925D
:10015000EF92FF920F931F93CF93DF936C017A017D
:100160008B01C0E0D0E0CE15DF0589F0D8016D919C
:100170008D01D601ED91FC910190F081E02DC60139
:100180000995892B11F47E0102C02196ECCFC7019D
:10019000DF91CF911F910F91FF90EF90DF90CF9063
:1001A000089590E0FC01E859FF4F3491FC01EC55B3
:1001B000FF4F2491FC01E057FF4FE491EE2309F437
:1001C0003BC0332339F1333091F038F43130A9F0AA
:1001D000323001F584B58F7D12C0373091F0383060
:1001E000A1F03430B9F4809180008F7D03C08091FC
:1001F00080008F77809380000DC084B58F7784BD99
:1002000009C08091B0008F7703C08091B0008F7DCE
:100210008093B000F0E0EE0FFF1FE458FF4FA59170
:10022000B4918FB7F894EC91611103C020952E23FF
:1002300001C02E2B2C938FBF08953FB7F894809167
:10024000470190914801A0914901B0914A0126B51A
:10025000A89B05C02F3F19F00196A11DB11D3FBFFE
:10026000BA2FA92F982F8827820F911DA11DB11D8C
:10027000BC01CD0142E0660F771F881F991F4A9588
:10028000D1F708958F929F92AF92BF92CF92DF9253
:10029000EF92FF926B017C010E941D014B015C01FA
:1002A000C114D104E104F104F1F00E941D01DC014C
:1002B000CB0188199909AA09BB09883E9340A10579
:1002C000B10570F321E0C21AD108E108F10888EE07
:1002D000880E83E0981EA11CB11CC114D104E10456
:1002E000F10419F7DDCFFF90EF90DF90CF90BF9032
:1002F000AF909F908F900895CF93DF93EC0160E0D3
:100300008E810E94D10061E08E810E94D10060E068
:100310008E810E94D1008BE891E00197F1F7DF9187
:10032000CF910895CF92DF92EF92FF920F931F9398
:10033000CF93DF937C016C0187E0C80ED11CC0E035
:10034000D0E0062F10E0B8010C2E02C0759567951D
:100350000A94E2F76170F60181916F010E94D10069
:100360002196C430D10579F7C701DF91CF911F9154
:100370000F91FF90EF90DF90CF900C947C01CF9283
:10038000DF92EF92FF920F931F93CF93DF93EC01D5
:10039000F62E642F8C810E94D1008D818F3F19F041
:1003A00060E00E94D1008F850F2D10E084FF25C0F2
:1003B0006E0187E0C80ED11CE12CF12CB8010E2C87
:1003C00002C0759567950A94E2F76170F601819114
:1003D0006F010E94D100FFEFEF1AFF0A88E0E816D4
:1003E000F10461F7CE01DF91CF911F910F91FF9042
:1003F000EF90DF90CF900C947C01B80184E075956C
:1004000067958A95E1F7CE010E9492016F2DCE018A
:10041000DF91CF911F910F91FF90EF90DF90CF90E0
:100420000C94920141E00E94BF0181E090E00895A8
:1004300040E061E00E94BF018BE39FE10197F1F78B
:100440000895009769F0FC0101900020E9F73197C9
:10045000AF01481B590BBC018BE491E00C94A60042
:1004600080E090E008950E94DE031F920F920FB685
:100470000F9211242F933F938F939F93AF93BF932A
:100480008091430190914401A0914501B0914601B2
:100490003091420123E0230F2D3720F40196A11D56
:1004A000B11D05C026E8230F0296A11DB11D2093A2
:1004B00042018093430190934401A0934501B0937E
:1004C00046018091470190914801A0914901B09166
:1004D0004A010196A11DB11D8093470190934801E7
:1004E000A0934901B0934A01BF91AF919F918F9121
:1004F0003F912F910F900FBE0F901F9018957894F9
:1005000084B5826084BD84B5816084BD85B5826018
:1005100085BD85B5816085BD80916E0081608093C9
:100520006E00109281008091810082608093810032
:100530008091810081608093810080918000816042
:10054000809380008091B10084608093B10080919D
:10055000B00081608093B00080917A0084608093C5
:100560007A0080917A00826080937A0080917A008C
:10057000816080937A0080917A00806880937A000D
:100580001092C100C1E0D0E0C230D10531F0C330DB
:10059000D10591F088E091E002C086E191E00E94EF
:1005A000210268EC70E080E090E00E9442018BE460
:1005B00091E00E9418021EC085E291E00E94210293
:1005C00068EC70E080E090E00E9442018BE491E0F2
:1005D0000E94180285E391E00E94210262E370E02C
:1005E00080E090E00E9442018BE491E00E941802BA
:1005F000C0E0D0E02196C430D10534F2C0E0D0E0B4
:100600002097F1F30E940000FBCFCF93DF9310926D
:100610004E0110924D0184E091E090934C01809343
:100620004B018CE080934F018FEF809350018BE062
:10063000809351018AE08093520189E080935301B5
:1006400088E08093540187E0809355011092560111
:1006500010925701109258011092590110925A01AC
:1006600081E080935E0110925F0180E480936001DD
:1006700080E18093610180E5809362018CE00E94BB
:100680008700809150018F3F11F00E948700809178
:1006900051010E948700C0E0D0E080915A0184FDA2
:1006A00003C084E090E002C088E090E0C817D9075A
:1006B00044F4FE01E55BFE4F87810E94870021968E
:1006C000ECCF8BE39DE00197F1F760E080914F0163
:1006D0000E94D10060E0809151010E94D100809180
:1006E00050018F3F19F060E00E94D10060915A01E3
:1006F00064FD20C063E08BE491E00E949201CBE4B2
:10070000D6E4CE010197F1F763E08BE491E00E941B
:1007100092012197F1F763E08BE491E00E9492014E
:1007200083E592E00197F1F762E08BE491E00E94AB
:1007300092011EC0606240E08BE491E00E94BF0124
:100740008BE496E40197F1F760915A01606240E012
:100750008BE491E00E94BF0183E592E00197F1F7FD
:1007600060915A01606240E08BE491E00E94BF0119
:1007700060915A01606240E08BE491E00E94BF0109
:1007800084E080935B0140E06CE08BE491E00E94A8
:10079000BF018BE491E00E94180282E080935C012B
:1007A00040E066E08BE491E0DF91CF910C94BF01D3
:1007B000EE0FFF1F0590F491E02D099481E090E089
:0A07C000F8940C94E303F894FFCFC3
:1007CA00000000001202A600696E697469616C6912
:1007DA007A696E672E00696E697469616C697A69F3
:1007EA006E672E2E00696E697469616C697A696E2A
:1007FA00672E2E2E00696E697469616C697A696E5A
:02080A00670085
:00000001FF
