:100000000C945D000C9485000C9485000C94850084
:100010000C9485000C9485000C9485000C9485004C
:100020000C9485000C9485000C9485000C9485003C
:100030000C9485000C9485000C9485000C9485002C
:100040000C94DC020C9485000C9485000C948500C3
:100050000C9485000C9485000C9485000C9485000C
:100060000C9485000C94850000000008000201003B
:100070000003040700000000000000000000000072
:10008000250028002B0000000000240027002A0083
:10009000040404040404040402020202020203032E
:1000A0000303030301020408102040800102040836
:1000B0001020010204081020090511241FBECFEFF3
:1000C000D8E0DEBFCDBF11E0A0E0B1E0E0E6FAE0AD
:1000D00002C005900D92A83AB107D9F721E0A8EA2D
:1000E000B1E001C01D92A93CB207E1F710E0CDE5F7
:1000F000D0E004C02197FE010E942805CC35D1072D
:10010000C9F70E9426030C942E050C94000090E081
:10011000FC01EC55FF4F249180579F4FFC018491C7
:10012000882399F090E0880F991FFC01EA57FF4F50
:10013000A591B491FC01E458FF4F859194918FB73C
:10014000F894EC91E22BEC938FBF0895AF92BF929D
:10015000CF92DF92EF92FF920F931F93CF93DF9393
:100160006C017B018B01040F151FEB015E01AE18C2
:10017000BF08C017D10759F06991D601ED91FC91E4
:100180000190F081E02DC6010995892B79F7C50111
:10019000DF91CF911F910F91FF90EF90DF90CF9063
:1001A000BF90AF90089590E0FC01E859FF4F249173
:1001B000FC01EC55FF4F3491FC01E057FF4FE491F7
:1001C000EE23C9F0222339F0233001F1A8F42130C5
:1001D00019F1223029F1F0E0EE0FFF1FE458FF4F34
:1001E000A591B4918FB7F894EC91611126C0309528
:1001F0003E233C938FBF08952730A9F02830C9F0E3
:10020000243049F7809180008F7D03C08091800069
:100210008F7780938000DFCF84B58F7784BDDBCF6D
:1002200084B58F7DFBCF8091B0008F778093B00035
:10023000D2CF8091B0008F7DF9CF3E2BDACF3FB780
:10024000F8948091AD019091AE01A091AF01B09171
:10025000B00126B5A89B05C02F3F19F00196A11D3E
:10026000B11D3FBFBA2FA92F982F8827BC01CD0100
:10027000620F711D811D911D42E0660F771F881F5F
:10028000991F4A95D1F708958F929F92AF92BF928E
:10029000CF92DF92EF92FF924B015C010E941F010F
:1002A0006B017C010E941F016C197D098E099F0959
:1002B000683E734081059105A8F321E0821A9108F8
:1002C000A108B10888EEC80E83E0D81EE11CF11C1D
:1002D00081149104A104B10429F7FF90EF90DF90FD
:1002E000CF90BF90AF909F908F900895089590E029
:1002F00080E00895FC0101900020E9F73197AF01FB
:10030000481B590BBC0181EB91E00C94A600CF93E4
:10031000DF93EC0160E08E810E94D30061E08E816A
:100320000E94D30060E08E810E94D3008BE891E0B0
:100330000197F1F7DF91CF910895CF92DF92EF927D
:10034000FF920F931F93CF93DF936C017C0187E0A3
:10035000E80EF11CD0E0C0E0062F10E0B8010C2E32
:1003600002C0759567950A94E2F76170F701819173
:100370007F010E94D3002196C430D10579F7C601D0
:10038000DF91CF911F910F91FF90EF90DF90CF9071
:100390000C948701CF92DF92EF92FF920F931F93FD
:1003A000CF93DF93EC01F62E642F8C810E94D30053
:1003B0008D818F3F19F060E00E94D3000F2D10E077
:1003C0008F8584FF25C06E0187E0C80ED11CF12CFB
:1003D000E12CB8010E2C02C0759567950A94E2F7DE
:1003E0006170F60181916F010E94D300FFEFEF1A57
:1003F000FF0A88E0E816F10461F7CE01DF91CF91A2
:100400001F910F91FF90EF90DF90CF900C94870198
:10041000B80184E0759567958A95E1F7CE010E9451
:100420009D016F2DCE01DF91CF911F910F91FF9014
:10043000EF90DF90CF900C949D0140E0682F81EB0E
:1004400091E00C94CA0181E00E941D028BE39FE1C0
:100450000197F1F70895CF93DF93613029F09091E0
:10046000C00198609093C0016093C4011092C501CF
:1004700090E49093C6018093C701805C8093C8018B
:100480008091B5010E9487008091B6018F3F11F0E5
:100490000E9487008091B7010E948700C1EBD1E0E4
:1004A0009E01215B31408091C00184FD0AC084E03F
:1004B00090E02196281739073CF48E810E9487002E
:1004C000EFCF88E090E0F5CF8BE39DE00197F1F767
:1004D00060E08091B5010E94D30060E08091B70197
:1004E0000E94D3008091B6018F3F19F060E00E9416
:1004F000D3008091C00184FD34C063E081EB91E0C2
:100500000E949D01CBE4D6E4CE010197F1F763E0B0
:1005100081EB91E00E949D012197F1F763E081EB6F
:1005200091E00E949D0183E592E00197F1F762E07E
:1005300081EB91E00E949D018091C00180620E9448
:100540001D0284E08093C1018CE00E941D020E9484
:10055000230282E08093C20186E0DF91CF910C9468
:100560001D0280620E941D028BE496E40197F1F760
:100570008091C00180620E941D0283E592E0019794
:10058000F1F78091C00180620E941D02D5CF909149
:10059000C401691710F06FEF690FE62FF0E0EF5418
:1005A000FE4F9489890F80680C941D0241E00E94DF
:1005B000CA0181E090E008951F920F920FB60F924A
:1005C00011242F933F938F939F93AF93BF93809169
:1005D000A9019091AA01A091AB01B091AC01309119
:1005E000A80123E0230F2D3758F50196A11DB11D59
:1005F0002093A8018093A9019093AA01A093AB0135
:10060000B093AC018091AD019091AE01A091AF018A
:10061000B091B0010196A11DB11D8093AD019093E1
:10062000AE01A093AF01B093B001BF91AF919F9184
:100630008F913F912F910F900FBE0F901F901895A3
:1006400026E8230F0296A11DB11DD2CFCF93DF93D1
:10065000CDB7DEB760970FB6F894DEBF0FBECDBF43
:10066000789484B5826084BD84B5816084BD85B58D
:10067000826085BD85B5816085BD80916E00816099
:1006800080936E001092810080918100826080933F
:100690008100809181008160809381008091800041
:1006A0008160809380008091B10084608093B1006C
:1006B0008091B00081608093B00080917A00846066
:1006C00080937A0080917A00826080937A00809192
:1006D0007A00816080937A0080917A0080688093AC
:1006E0007A001092C10064E084E10E942B027E0136
:1006F00081E1E80EF11C80E0C82E80E0D82E0E9437
:1007000023028CE191E00E947A0160ED77E080E0C5
:1007100090E00E9444010E94230288E291E00E943E
:100720007A0103E010E08091C1018B7F8093C101C9
:1007300088600E941D0268EE73E080E090E00E94F5
:1007400044018091C101982F94609093C1018C6005
:100750000E941D0268EE73E080E090E00E94440178
:100760000150110901F70E94230287E391E00E94E2
:100770007A0168EE73E080E090E00E9444010E94FC
:10078000230260E085E00E94C70286E491E00E94B7
:100790007A0160ED77E080E090E00E94440161E042
:1007A0008AE00E94C7028AE491E00E947A0160ED2B
:1007B00077E080E090E00E94440161E083E00E94E5
:1007C000C7028FE491E00E947A0160ED77E080E05B
:1007D00090E00E9444010E94230283E591E00E9480
:1007E0007A0168EE73E080E090E00E9444010E948C
:1007F000230260E087E00E94C70284E691E00E9445
:100800007A0161E089E00E94C7028EE691E00E94D1
:100810007A0168EE73E080E090E00E94440100E11C
:1008200010E088E10E941D026AEF70E080E090E035
:100830000E94440101501109A1F70E94230286E79A
:1008400091E00E947A0161E080E00E94C70281E4A9
:1008500091E00E947A0168EE73E080E090E00E94EF
:1008600044010E94230284E691E00E947A0161E043
:1008700080E00E94C7028EE691E00E947A0168EE55
:1008800073E080E090E00E94440100E110E08CE120
:100890000E941D026AEF70E080E090E00E94440137
:1008A00001501109A1F70E9423028091C101982FE4
:1008B00092609093C1018A600E941D0283E891E0DA
:1008C0000E947A0168EB7BE080E090E00E944401A6
:1008D0000E9423028091C1018D7F8093C1018860B5
:1008E0000E941D028DE891E00E947A0168EB7BE096
:1008F00080E090E00E9444010E9423028091C101A7
:10090000982F92609093C1018A600E941D0280918D
:10091000C101982F91609093C10189600E941D02CE
:1009200088E991E00E947A0168EB7BE080E090E04A
:100930000E9444018091C1018D7F8093C101886034
:100940000E941D028091C1018E7F8093C101886049
:100950000E941D020E94230288E0E0E0F1E0DE0137
:10096000199601900D928A95E1F788E0E8E0F1E0B0
:10097000DE01119601900D928A95E1F780E40E94C4
:100980001D028E01075F1F4F5801F80161918F0111
:1009900081EB91E00E94D602E016F106B1F788E4FF
:1009A0000E941D028E010F5F1F4FF80161918F01A0
:1009B00081EB91E00E94D6020A151B05B1F705E014
:1009C00010E060E088E00E94C70260E081EB91E007
:1009D0000E94D60268EE73E080E090E00E9444013D
:1009E00060E088E00E94C70261E081EB91E00E9434
:1009F000D60268EE73E080E090E00E94440101506E
:100A00001109F9F6C114D10409F479CE0E9400004D
:100A100076CEE1EBF1E01382128284E191E09183E2
:100A200080838CE084838FEF85838BE086838AE0EC
:100A3000878389E0808788E0818787E082871386C3
:100A4000148615861686178661E080E10C942B02C9
:100A5000EE0FFF1F0590F491E02D0994F894FFCF5D
:100A600000001100110E0000000011000E11000026
:100A700000000000D602A60077017601426173698A
:100A800063205072696E7400446973706C617920E0
:100A90004F6E2F4F666600536574437572736F72A5
:100AA0002044656D6F00352C300031302C3100331F
:100AB0002C31005363726F6C6C204C65667420445B
:100AC000656D6F00426567696E6E696E67004172A1
:100AD0006475696E6F005363726F6C6C2052696746
:100AE000687400437572736F72204F6E00437572A5
:100AF000736F72204F666600437572736F72204287
:080B00006C696E6B204F6E0062
:00000001FF
