:100000000C946B000C947D000C947D000C947D008E
:100010000C947D000C947D000C947D000C947D006C
:100020000C947D000C947D000C947D000C947D005C
:100030000C947D000C947D000C947D000C947D004C
:100040000C9434020C947D000C947D000C947D0083
:100050000C947D000C947D000C947D000C947D002C
:100060000C947D000C947D00120286019A01AA0175
:10007000BD01CA01D101D801EE01FE01000000005E
:10008000240027002A0000000000250028002B0083
:1000900000000000230026002900040404040404D6
:1000A0000404020202020202030303030303010227
:1000B00004081020408001020408102001020408F6
:1000C00010200000000800020100000304070000E7
:1000D00000000000000011241FBECFEFD8E0DEBFFB
:1000E000CDBF21E0A0E0B1E001C01D92A331B20775
:1000F000E1F70E947E020C943C040C9400008330D3
:1001000081F028F4813099F08230A1F00895873091
:10011000A9F08830B9F08430D1F4809180008F7DCF
:1001200003C0809180008F7780938000089584B50C
:100130008F7702C084B58F7D84BD08958091B00013
:100140008F7703C08091B0008F7D8093B0000895B9
:100150001F93CF93DF93282F30E0F901EE53FF4F29
:100160008491F901E255FF4FD491F901E656FF4F12
:10017000C491CC23C9F0162F81110E947F00EC2F6F
:10018000F0E0EE0FFF1FEA57FF4FA591B4918FB734
:10019000F894111105C09C91ED2FE095E92302C060
:1001A000EC91ED2BEC938FBFDF91CF911F910895D0
:1001B000CF93DF9390E0FC01E255FF4F2491FC01C7
:1001C000E656FF4F8491882361F190E0880F991FD4
:1001D000FC01E458FF4FC591D491FC01EA57FF4F51
:1001E000A591B491611109C09FB7F89488812095B9
:1001F00082238883EC912E230BC0623061F49FB779
:10020000F8943881822F809583238883EC912E2B5C
:100210002C939FBF06C08FB7F894E8812E2B2883BC
:100220008FBFDF91CF9108953FB7F894809101017E
:1002300090910201A0910301B091040126B5A89B01
:1002400005C02F3F19F00196A11DB11D3FBFBA2F68
:10025000A92F982F8827820F911DA11DB11DBC01C8
:10026000CD0142E0660F771F881F991F4A95D1F78D
:1002700008958F929F92AF92BF92CF92DF92EF92AA
:10028000FF926B017C010E9414014B015C01C114BF
:10029000D104E104F104F1F00E941401DC01CB016E
:1002A00088199909AA09BB09883E9340A105B1059F
:1002B00070F321E0C21AD108E108F10888EE880E37
:1002C00083E0981EA11CB11CC114D104E104F10407
:1002D00019F7DDCFFF90EF90DF90CF90BF90AF90F8
:1002E0009F908F90089561E00C94A80060E00C94BA
:1002F000A800CF93C62F482F50E04A30510508F090
:1003000091C0FA01EC5CFF4F0C94220487E00E943C
:1003100076018DE00E9476018CE00E9473018BE0F3
:100320000E9473018AE00E94760189E00E947601B2
:1003300088E051C08DE00E9473018CE00E9473013F
:100340008BE00E9476018AE00E94730189E00E949E
:1003500073010FC08DE00E9473018CE00E94730155
:100360008BE00E9473018AE00E94730189E00E9481
:10037000760188E00E94760153C08DE00E947601EC
:100380008CE00E9473018BE00E9473018AE00E945E
:10039000760140C08DE00E9473018CE00E947601DE
:1003A00033C08DE00E9473018CE00E9476011CC076
:1003B0008DE00E9473018CE00E9473018BE00E942B
:1003C00073018AE00E94760189E00E94760188E04C
:1003D0000E94730187E00E94760139C08DE00E947F
:1003E00073018CE00E9473018BE00E9473018AE02C
:1003F0000E94730189E00E9473010FC08DE00E948A
:1004000073018CE00E9473018BE00E9473018AE00B
:100410000E94730189E00E94760188E00E947301C6
:1004200087E013C087E00E9476018DE00E9473018F
:100430008CE00E9473018BE00E9473018AE00E94AD
:10044000730189E00E94730188E00E9473018C2F80
:100450000E94760165E070E080E090E00E94390142
:100460008C2FCF910C9473011F920F920FB60F92A5
:1004700011242F933F938F939F93AF93BF938091BA
:10048000050190910601A0910701B09108013091FA
:10049000000123E0230F2D3720F40196A11DB11D8B
:1004A00005C026E8230F0296A11DB11D209300016F
:1004B0008093050190930601A0930701B093080172
:1004C0008091010190910201A0910301B09104017A
:1004D0000196A11DB11D8093010190930201A0938B
:1004E0000301B0930401BF91AF919F918F913F9110
:1004F0002F910F900FBE0F901F901895789484B590
:10050000826084BD84B5816084BD85B5826085BD0F
:1005100085B5816085BD80916E00816080936E009D
:10052000109281008091810082608093810080918F
:100530008100816080938100809180008160809340
:1005400080008091B10084608093B1008091B00000
:1005500081608093B00080917A00846080937A00FB
:1005600080917A00826080937A0080917A00816025
:1005700080937A0080917A00806880937A0010924C
:10058000C10061E08DE00E94D80061E08CE00E9433
:10059000D80061E08BE00E94D80061E08AE00E9410
:1005A000D80061E089E00E94D80061E088E00E9404
:1005B000D80061E087E00E94D80061E086E00E94F8
:1005C000D80061E085E00E94D80061E084E00E94EC
:1005D000D80061E083E00E94D80060E082E00E94E1
:1005E000D8008DE00E9476018CE00E9476018BE0BD
:1005F0000E9476018AE00E94760189E00E947601DD
:1006000088E00E94760187E00E94760186E00E94E1
:10061000760185E00E94760184E00E94760183E005
:100620000E94760168EE73E080E090E00E9439015C
:100630002FB7F8948091050190910601A0910701D0
:10064000B09108012FBF80930F0190931001A093E8
:100650001101B093120104EC10E090EBE92E90E050
:10066000F92E2CE9C22E20E0D22E38EEA32E33E054
:10067000B32E4AE0642E712CC4E6D0E050E0852E03
:1006800050E0952EF8018491F7014490F6015490C2
:10069000552071F081110E947F00E52DF0E0EE0FF2
:1006A000FF1FE057FF4FA591B4918C914822C1F5EF
:1006B0002FB7F8948091050190910601A091070150
:1006C000B09108012FBF40910F015091100160912E
:1006D000110170911201841B950BA60BB70B843F7F
:1006E0009140A105B105E0F080910D0190910E01BE
:1006F000019690930E0180930D012FB7F89480918D
:10070000050190910601A0910701B09108012FBF4A
:1007100080930F0190931001A0931101B0931201E7
:1007200020910D0130910E01C901885E93408832FD
:10073000934208F5C901B5010E940E04CB01B30133
:100740000E940E0480930C01C901BE010E940E0498
:10075000CB01B3010E940E0480930B01C901B301C8
:100760000E940E04482FCB01B3010E940E04809317
:100770000A0140930901C9018456910984389340C4
:10078000B8F4C901BE010E940E04CB01B3010E945E
:100790000E0480930B01C901B3010E940E04482F7F
:1007A000CB01B3010E940E0480930A01409309011A
:1007B000C9010A978A35910568F4C901B3010E94FD
:1007C0000E04482FCB01B3010E940E0480930A014E
:1007D000409309012A30310534F4C901B3010E9464
:1007E0000E048093090163E0809109010E94790160
:1007F00064E080910A010E94790165E080910B011B
:100800000E94790166E080910C010E9479018114B7
:10081000910409F437CF0E94000034CF97FB072ED4
:1008200016F4009407D077FD09D00E94280407FC35
:1008300005D03EF4909581959F4F089570956195F0
:100840007F4F0895EE0FFF1F0590F491E02D09945E
:10085000AA1BBB1B51E107C0AA1FBB1FA617B707E6
:1008600010F0A61BB70B881F991F5A95A9F7809502
:0C0870009095BC01CD010895F894FFCFD5
:00000001FF
