:100000000C945C000C946E000C946E000C946E00CA
:100010000C946E000C946E000C946E000C946E00A8
:100020000C946E000C946E000C946E000C946E0098
:100030000C946E000C946E000C946E000C946E0088
:100040000C940C010C946E000C946E000C946E00D9
:100050000C946E000C946E000C946E000C946E0068
:100060000C946E000C946E00000000080002010069
:100070000003040700000000000000000000000072
:10008000250028002B0000000000240027002A0083
:10009000040404040404040402020202020203032E
:1000A0000303030301020408102040800102040836
:1000B000102001020408102011241FBECFEFD8E049
:1000C000DEBFCDBF21E0A0E0B1E001C01D92AF30A6
:1000D000B207E1F70E9456010C9442030C94000011
:1000E00090E0FC01EC55FF4F2491FC01E057FF4FDD
:1000F0008491882399F090E0880F991FFC01EA57BA
:10010000FF4FA591B491FC01E458FF4F8591949164
:100110008FB7F894EC91E22BEC938FBF089590E0A9
:10012000FC01E859FF4F3491FC01EC55FF4F24913D
:10013000FC01E057FF4FE491EE2309F43BC0332369
:1001400039F1333091F038F43130A9F0323001F523
:1001500084B58F7D12C0373091F03830A1F0343043
:10016000B9F4809180008F7D03C0809180008F77EB
:10017000809380000DC084B58F7784BD09C08091C5
:10018000B0008F7703C08091B0008F7D8093B00066
:10019000F0E0EE0FFF1FE458FF4FA591B4918FB729
:1001A000F894EC91611103C020952E2301C02E2BF1
:1001B0002C938FBF08953FB7F894809105019091DB
:1001C0000601A0910701B091080126B5A89B05C0C2
:1001D0002F3F19F00196A11DB11D3FBFBA2FA92FC6
:1001E000982F8827820F911DA11DB11DBC01CD0143
:1001F00042E0660F771F881F991F4A95D1F708952F
:100200002FB7F89460910101709102018091030170
:10021000909104012FBF08951F920F920FB60F9275
:1002200011242F933F938F939F93AF93BF9380910C
:10023000010190910201A0910301B091040130915C
:10024000000123E0230F2D3720F40196A11DB11DDD
:1002500005C026E8230F0296A11DB11D20930001C1
:100260008093010190930201A0930301B0930401D4
:100270008091050190910601A0910701B0910801BC
:100280000196A11DB11D8093050190930601A093D5
:100290000701B0930801BF91AF919F918F913F915A
:1002A0002F910F900FBE0F901F901895789484B5E2
:1002B000826084BD84B5816084BD85B5826085BD62
:1002C00085B5816085BD80916E00816080936E00F0
:1002D00010928100809181008260809381008091E2
:1002E0008100816080938100809180008160809393
:1002F00080008091B10084608093B1008091B00053
:1003000081608093B00080917A00846080937A004D
:1003100080917A00826080937A0080917A00816077
:1003200080937A0080917A00806880937A0010929E
:10033000C10082E00E94700083E00E94700084E0AF
:100340000E94700085E00E94700086E00E947000AC
:1003500087E00E94700088E00E94700089E00E949F
:1003600070008AE00E9470008BE00E9470008CE0B8
:100370000E9470008DE00E94700061E082E00E94A7
:100380008F0061E085E00E948F0061E088E00E94BC
:100390008F0061E08BE00E948F000E94000160935B
:1003A000090170930A0180930B0190930C010E9444
:1003B000DB004B015C0194EFC92EDD24D394E12CCA
:1003C000F12C0E94DB00DC01CB0188199909AA09F4
:1003D000BB09883E9340A105B10558F021E0C21A3F
:1003E000D108E108F10888EE880E83E0981EA11C70
:1003F000B11CC114D104E104F10419F7C0E0D0E04C
:1004000011E002E083E0F82E0E94000180900901D3
:1004100090900A01A0900B01B0900C01DC01CB017F
:1004200088199909AA09BB09803D9740A105B10522
:1004300028F080910D01882309F4FAC00E94000180
:100440008090090190900A01A0900B01B0900C01DE
:10045000DC01CB0188199909AA09BB09803A9F40A0
:10046000A105B10528F080910D01813009F4EDC09E
:100470000E9400018090090190900A01A0900B0158
:10048000B0900C01DC01CB0188199909AA09BB09BC
:10049000803A9F40A105B10528F080910D0182307E
:1004A00009F4E0C00E9400018090090190900A01C7
:1004B000A0900B01B0900C01DC01CB0188199909C7
:1004C000AA09BB09843F9140A105B105C0F0809104
:1004D0000D018330A1F410920D0180910E018F5F08
:1004E000843008F4CCC010920E010E940001609389
:1004F000090170930A0180930B0190930C01809184
:100500000E01813051F138F0823009F448C0833057
:1005100009F466C087C080910D01813081F060F0E0
:100520008230A1F0833009F07DC060E083E00E945A
:100530008F0061E082E074C060E082E009C060E0AA
:1005400083E00E948F0061E084E06AC060E084E0A4
:100550000E948F0061E083E063C080910D018130D3
:1005600081F060F08230A1F0833009F05BC060E080
:1005700086E00E948F0061E085E052C060E085E087
:1005800009C060E086E00E948F0061E087E048C01B
:1005900060E087E00E948F0061E086E041C08091CA
:1005A0000D01813079F058F0823099F08330D1F527
:1005B00060E089E00E948F0061E088E031C060E087
:1005C00088E009C060E089E00E948F0061E08AE075
:1005D00027C060E08AE00E948F0061E089E020C0CF
:1005E00080910D01813079F058F0823099F083309C
:1005F000C9F460E08CE00E948F0061E08BE010C0E5
:1006000060E08BE009C060E08CE00E948F0061E058
:100610008DE006C060E08DE00E948F0061E08CE01C
:100620000E948F00209709F4EFCE0E940000ECCECC
:1006300010930D010E9400016093090170930A015B
:1006400080930B0190930C01F9CE00930D010E9451
:1006500000016093090170930A0180930B0190934C
:100660000C0106CFF0920D010E9400016093090178
:1006700070930A0180930B0190930C0113CF809328
:080680000E0133CFF894FFCF07
:00000001FF
